:020000040800F2
:100000007806002061020008210D0008190D000883
:100010001D0D000859040008ED0D00080000000047
:10002000000000000000000000000000290D000892
:100030005D04000800000000250D00082D0D0008DB
:100040007B0200087B0200087B0200087B0200089C
:100050007B0200087B0200087B0200087B0200088C
:100060007B0200087B0200087B0200087B0200087C
:100070007B0200087B0200087B0200087B0200086C
:100080007B0200087B0200087B02000800000000E1
:100090000000000000000000000000007B020008DB
:1000A0007B0200087B0200087B0200087B0200083C
:1000B0007B0200087B0200087B0200087B0200082C
:1000C0007B0200087B0200087B0200087B0200081C
:1000D0007B0200087B0200087B0200080000000091
:1000E0007B0200087B0200087B0200080000000081
:1000F0000000000000000000000000007B0200087B
:10010000000000007B0200087B0200087B02000860
:1001100000000000000000000000000000000000DF
:100120007B0200087B0200087B0200087B020008BB
:100130007B0200080000000000000000000000003A
:100140000000000000000000000000007B0200082A
:100150007B0200087B0200087B0200087B0200088B
:100160007B0200087B020008000000000000000085
:10017000000000000000000000000000000000007F
:10018000000000007B0200080000000000000000EA
:100190007B02000800F002F800F052F814A696E87E
:1001A000000CB244B344DA4501D100F049F8BAE892
:1001B0000F000FA696E83000A5EB040504EB060738
:1001C000AAEB0704A7F101074FEA15154FEA34140B
:1001D000A4F10104AC4201D300F032F813F0010F96
:1001E00018BFFB1A43F0010300F001F8DBE71847E2
:1001F000CC0C0000EC0C0000103A24BF78C878C189
:10020000FAD8520724BF30C830C144BF04680C601C
:1002100070470000704700000023002400250026DE
:10022000103A28BF78C1FBD8520728BF30C148BF59
:100230000B6070471FB500F02CFE1FBD10B510BD40
:1002400000F0D0F81146FFF7F5FF00F0D1FD00F007
:10025000EEF803B4FFF7F2FF03BC00F0F5F800007E
:100260000948804709480047FEE7FEE7FEE7FEE74A
:10027000FEE7FEE7FEE7FEE7FEE7FEE70448054986
:10028000054A064B70470000D90D0008950100088B
:1002900078000020780600207802002078020020F4
:1002A00053EA020C00F069802DE9F04B4FF0000694
:1002B000002B1FBFB3FA83F503FA05F424FA05F601
:1002C0005E4012BF1643B2FA82F502FA05F4C5F198
:1002D00020051EBF22FA05FC44EA0C04203556EA2C
:1002E000044C4FEA144418BF641C4FF000084FF050
:1002F0000009904271EB030C39D3002919BFB1FA00
:1003000081F701FA07F6B0FA80F700FA07F6C7F1AD
:1003100020071EBF20FA07FC46EA0C062037B6FB72
:10032000F4FCA7EB0507103F07F01F0BCBF12006ED
:100330002CFA06F60CFA0BFB44BFB3460026202F1E
:10034000A4BF5E464FF0000B5BEA060C08BF4FF0FF
:10035000010B19EB0B0948EB0608ABFB027C06FB13
:1003600002CC0BFB03CCC01B71EB0C01C1E70B46AD
:10037000024641464846BDE8F08B13B5084318BF16
:100380004FF0FF300146AFF30080BDE81C407047DE
:100390004FF0000200B5134694469646203922BF1E
:1003A000A0E80C50A0E80C50B1F12001BFF4F7AF69
:1003B000090728BFA0E80C5048BF0CC05DF804EB4B
:1003C000890028BF40F8042B08BF704748BF20F8B9
:1003D000022B11F0804F18BF00F8012B70477047B7
:1003E00070477047754600F02BF8AE460500694629
:1003F000534620F00700854618B020B5FFF73EFFB2
:10040000BDE820404FF000064FF000074FF0000815
:100410004FF0000BAC46ACE8C009ACE8C009ACE852
:10042000C009ACE8C00921F007018D46704710B53E
:100430000446AFF300802046BDE81040FFF709BF37
:10044000004870471000002001491820ABBEFEE7AD
:100450002600020070470000FEE700007047000021
:100460002DE9F04F83B000F1200200F13E4741F248
:100470000005009207F1FF77C4F2020507224FEA58
:10048000B726A84208BF042200254FF000084FF00D
:100490000009042E38BF4FEAB72201920AE000BFDC
:1004A00009F1010908F10208B9F1100F05F104057D
:1004B00000F0A2800F68012202FA09FE17EA0E0A74
:1004C000EED0D1F804C003220CF003077E1E02FA1E
:1004D00008F4012E6FEA040B12D88468CE6804EA8F
:1004E0000B0406FA08F634438460446824EA0E06D6
:1004F000CCF3001404FA09F42643466004E000BF7C
:10050000032F01D103271EE0C6688C6806EA0B069C
:1005100004FA08F42643022FC66014D16FF00302D8
:10052000009E02EA590756F807C005F01C040F2286
:100530000B69A2402CEA0202A3401A43F251D1F8FF
:1005400004C00CF00307026807FA08F302EA0B0282
:100550001A431CF4403F0260A2D0002243F6440339
:100560000292C4F202031A6843F6004442F4804245
:100570001A601A68C4F2010402F480420292029ADC
:1005800029F003024FF6084C2244CFF6FF7C52F8C4
:100590000C3005F00C070F26BE40B343019E06FA4F
:1005A00007F73B4342F80C30A2684B6842EA0A075F
:1005B00043F60C4CDE0258BF22EA0A07A760C4F2D9
:1005C000010CDCF800209E0242EA0A0758BF22EA2A
:1005D0000A07CCF8007062689E0342EA0A0758BF17
:1005E00022EA0A0767602268DB0342EA0A0758BF6B
:1005F00022EA0A07276053E703B0BDE8F08F000046
:100600000069084018BF012070470000002A08BF99
:10061000090481617047000040F27000C2F20000DE
:100620000068704740F2000040F27001C2F2000022
:10063000C2F2000100780A681044086070470000A8
:1006400080B543F60040C4F20200016841F4007135
:100650000160016841F480610160016841F48071CA
:100660000160032000F074F80F2000F005F800F09E
:1006700027F8002080BD000070B540F20006C2F2ED
:10068000000640F208013278C2F200014FF47A739A
:100690000968B3FBF2F20446B1FBF2F1084600F040
:1006A00025FB0F2C4FF0010508D838B94FF0FF306B
:1006B00021460022002500F01FF87460284670BD16
:1006C00082B0002043F640010190C4F202014A6862
:1006D00042F480424A604A6802F480420192019AE0
:1006E0000090086840F080500860086800F0805072
:1006F0000090009802B0704710B54EF60C5CCEF238
:10070000000CDCF80030C3F3022E8EF00704042C3A
:1007100028BF0424BEF103034FF0FF3E0EFA04F499
:1007200038BF0023A14399400EFA03F39A431143C3
:1007300000F00F0200F160430901043A03F564433D
:100740006244002848BF02F10C03197010BD00007C
:100750004EF60C51CEF200010A684FF6FF031A4024
:1007600060F30A2242F0806040F0FD70086070473C
:10077000002804BF012070472DE9F04143F6080826
:10078000C4F202080446D8F8F8030D4600F007004A
:10079000884207D288F8F853D8F8F80300F0070029
:1007A000A84277D12068810717D5410705D5D8F829
:1007B000001041F4E051C8F80010010705D5D8F841
:1007C000001041F46041C8F80010D8F80010A26889
:1007D00021F0F0011143C8F80010C00740D1D8F84B
:1007E000F80300F00700A84207D988F8F853D8F8B2
:1007F000F80300F00700A8424CD12068410707D554
:10080000D8F80010E26821F4E0511143C8F8001054
:10081000000708D5D8F80000216920F4604040EABC
:10082000C100C8F8000000F055F8D8F8001040F6F4
:10083000AC62C1F30311C0F60002515C40F2080241
:1008400020FA01F140F20400C2F200000068C2F296
:1008500000021160FFF710FF0020BDE8F08100BF2B
:100860006068811E022907D258F8081C89015CBF04
:100870000120BDE8F08111E0012807D158F8081CDB
:1008800089035CBF0120BDE8F08107E058F8081C2F
:10089000890703D40120BDE8F08100BFD8F800101B
:1008A00021F003010843C8F80000FFF7B5FE064633
:1008B00041F28837D8F80000616800F00C00B0EB16
:1008C000810F8CD0FFF7A8FE801BB842F2D903201D
:1008D000BDE8F08110B543F60404C4F20204606878
:1008E00000F00C0008280BD0042819BF42F2004089
:1008F000C0F2F40047F64000C0F27D1010BD00BF0A
:10090000206821682368490247F64001C0F27D1142
:1009100000F03F02C3F388105CBF42F20041C0F216
:10092000F401A1FB00010023FFF7BAFC21680222B9
:10093000C1F3014102EB4101B0FBF1F010BD000039
:10094000002804BF012070472DE9F04182B0044621
:10095000007843F60006C007C4F202060CD0B06867
:1009600000F00C00042840F081803068800303D53B
:100970006068002800F06881207880071BD5B06887
:1009800010F00C0F09D0B06800F00C00082840F0FF
:1009900087807068400200F183803068800703D54B
:1009A000E068012840F050813068216920F0F800AB
:1009B00040EAC10030602078000713D42078400757
:1009C0002AD4A569002D00F03A81B06800F00C002F
:1009D000082840F0A580012D40F00E81012002B0D2
:1009E000BDE8F0816069002800F082800020C4F238
:1009F00047200121C0F8801EFFF70EFE054600BF0C
:100A0000706F8007DAD4FFF707FE401B0228F7D982
:100A1000032002B0BDE8F081306C5FEAC0080AD460
:100A200000200190306C40F080503064306C00F059
:100A300080500190019847F20007C4F2000738681F
:100A4000C00547D4386840F480703860FFF7E4FD93
:100A5000054600BF3868C0053CD4FFF7DDFD401BEC
:100A60000228F7D9032002B0BDE8F081B06800F099
:100A70000C00082803D1706840023FF576AF61682A
:100A80003068B1F5803F07D0B1F5A02F40F09A80D3
:100A900040F480203060306840F4803030609AE06C
:100AA000E068002840F20000C4F247205CD0012139
:100AB0000160FFF7B1FD0546306880073FF574AF70
:100AC000FFF7AAFD401B0228F6D9032002B0BDE8BB
:100AD000F08100BFA168306F012905D0052955D1EB
:100AE00040F004003067306F40F00100306756E09E
:100AF0000020C4F247200021C0F8801EFFF78CFDC3
:100B0000054600BF706F80077FF558AFFFF784FD83
:100B1000401B0228F6D9032002B0BDE8F08100BFD7
:100B20000027C4F2472700203866FFF775FD022D25
:100B300005460DD13068800140F18A80FFF76CFDD9
:100B4000401B02284FF00300F4D902B0BDE8F08149
:100B50003068800173D5FFF75FFD401B02284FF01E
:100B60000300F5D9F1E700BF00210160FFF754FD54
:100B7000054600BF306880077FF51DAFFFF74CFDCD
:100B8000401B02284FF00300F4D9DEE720F00100FB
:100B90003067306F002920F0040030677AD0FFF70B
:100BA0003BFD054641F28837306F800700F18480B5
:100BB000FFF732FD401BB842F6D9032002B0BDE872
:100BC000F08100BF20F4803030603068002920F4CC
:100BD000802030607AD0FFF71FFD05463068800323
:100BE0003FF5CAAEFFF718FD401B6428F6D9032075
:100BF00002B0BDE8F08100BF7068E16900F48002D6
:100C00008A4221D1216A00F03F028A421CD147F674
:100C1000C071626A0140B1EB821F15D1A16A4FF623
:100C2000FF73C903994300F44032A1F580318A4231
:100C30000AD1E16A00F07060B0EB016F04D10020CE
:100C400002B0BDE8F08100BF012002B0BDE8F08134
:100C500004F11C052FCD084340EA8210D9034FF65A
:100C6000FF729143A1F5803140EA0560084370604E
:100C700001203866FFF7D0FC044600BF30688001D1
:100C8000DDD4FFF7C9FC001B02284FF00300F5D9A3
:100C90005BE700BFFFF7C0FC054641F2883700BFA5
:100CA000306F800708D5FFF7B7FC401BB8424FF004
:100CB0000300F5D949E700BFB8F1000F3FF581AE59
:100CC000306C20F0805030647BE600BFFFF7A4FC5E
:100CD000054600BF306880037FF54EAEFFF79CFCF1
:100CE000401B64284FF00300F4D92EE7411E00207A
:100CF000B0EB116F1CBF012070474EF21002CEF214
:100D0000000251604EF62351CEF20001F0230B7029
:100D10000721906011607047FEE70000FEE70000C9
:100D2000FEE700007047000070470000FFF77ABC44
:100D300070B592B006AC20463021FFF729FB0025A4
:100D400043F640000595CDE90355CDE901550095E1
:100D5000C4F202000168022641F08051016000687F
:100D600000F080500090009847F200000095C4F217
:100D70000000016866F38F310160006800F44040B4
:100D8000009000980120099010200A9008200E90F1
:100D90004020CDE90F060420119020460696CDE9AB
:100DA0000C65FFF7CDFD18B172B600BFFEE700BFBE
:100DB0000F20CDE90106902003904FF48050CDE93B
:100DC000040501A80021FFF7D3FC18B172B600BFDB
:100DD000FEE700BF12B070BD4EF68850CEF20000A4
:100DE000016841F47001016070470000FEE70000F7
:100DF00086B00024C4F20204FFF722FCFFF798FF3C
:100E0000002743F630000597CDE90377CDE9017758
:100E10000097C4F202000168002241F00401016061
:100E200001684FF0200801F004010091009900973B
:100E3000016841F0010101600068202100F001001B
:100E4000009000982046FFF7E1FB4FF4005004F5B6
:100E5000006501AECDE90107284631460397FFF74B
:100E6000FFFA0120CDE9020720463146CDF8048083
:100E70000497FFF7F5FA00BF28464FF40051FFF73B
:100E8000BFFBB0FA80F0420920462021FFF7BEFBED
:100E9000F2E7F1EE100A4FF6FF71C0F2C03120EA1E
:100EA000010040F04070E1EE100A704700000000C1
:100EB000000000000102030406070809E00E000814
:100EC0000000002010000000F8010008F00E0008EB
:100ED0001000002068060000180200080000000052
:100EE00001000000100000000024F40000000000D9
:040000050800019559
:00000001FF
